{"abi":[{"type":"constructor","inputs":[{"name":"_harvestToken","type":"address","internalType":"address"},{"name":"_trustScoreManager","type":"address","internalType":"address"},{"name":"_paymentToken","type":"address","internalType":"address"}],"stateMutability":"nonpayable"},{"type":"function","name":"calculateInterest","inputs":[{"name":"amount","type":"uint256","internalType":"uint256"},{"name":"investedAt","type":"uint256","internalType":"uint256"},{"name":"apy","type":"uint256","internalType":"uint256"}],"outputs":[{"name":"","type":"uint256","internalType":"uint256"}],"stateMutability":"view"},{"type":"function","name":"defaultInvestment","inputs":[{"name":"harvestTokenId","type":"uint256","internalType":"uint256"}],"outputs":[],"stateMutability":"nonpayable"},{"type":"function","name":"getHarvestInvestments","inputs":[{"name":"harvestTokenId","type":"uint256","internalType":"uint256"}],"outputs":[{"name":"investors","type":"address[]","internalType":"address[]"},{"name":"amounts","type":"uint256[]","internalType":"uint256[]"},{"name":"investmentDates","type":"uint256[]","internalType":"uint256[]"},{"name":"paymentStatuses","type":"bool[]","internalType":"bool[]"}],"stateMutability":"view"},{"type":"function","name":"getInvestorInvestments","inputs":[{"name":"investor","type":"address","internalType":"address"}],"outputs":[{"name":"","type":"uint256[]","internalType":"uint256[]"}],"stateMutability":"view"},{"type":"function","name":"getTotalInvestedAmount","inputs":[{"name":"harvestTokenId","type":"uint256","internalType":"uint256"}],"outputs":[{"name":"","type":"uint256","internalType":"uint256"}],"stateMutability":"view"},{"type":"function","name":"harvestInvestments","inputs":[{"name":"","type":"uint256","internalType":"uint256"},{"name":"","type":"uint256","internalType":"uint256"}],"outputs":[{"name":"investor","type":"address","internalType":"address"},{"name":"amount","type":"uint256","internalType":"uint256"},{"name":"investedAt","type":"uint256","internalType":"uint256"},{"name":"isPaid","type":"bool","internalType":"bool"},{"name":"harvestTokenId","type":"uint256","internalType":"uint256"}],"stateMutability":"view"},{"type":"function","name":"harvestToken","inputs":[],"outputs":[{"name":"","type":"address","internalType":"contract HarvestToken"}],"stateMutability":"view"},{"type":"function","name":"invest","inputs":[{"name":"harvestTokenId","type":"uint256","internalType":"uint256"},{"name":"amount","type":"uint256","internalType":"uint256"}],"outputs":[],"stateMutability":"nonpayable"},{"type":"function","name":"investorInvestments","inputs":[{"name":"","type":"address","internalType":"address"},{"name":"","type":"uint256","internalType":"uint256"}],"outputs":[{"name":"","type":"uint256","internalType":"uint256"}],"stateMutability":"view"},{"type":"function","name":"owner","inputs":[],"outputs":[{"name":"","type":"address","internalType":"address"}],"stateMutability":"view"},{"type":"function","name":"paymentToken","inputs":[],"outputs":[{"name":"","type":"address","internalType":"contract IERC20"}],"stateMutability":"view"},{"type":"function","name":"renounceOwnership","inputs":[],"outputs":[],"stateMutability":"nonpayable"},{"type":"function","name":"repayInvestment","inputs":[{"name":"harvestTokenId","type":"uint256","internalType":"uint256"}],"outputs":[],"stateMutability":"nonpayable"},{"type":"function","name":"transferOwnership","inputs":[{"name":"newOwner","type":"address","internalType":"address"}],"outputs":[],"stateMutability":"nonpayable"},{"type":"function","name":"trustScoreManager","inputs":[],"outputs":[{"name":"","type":"address","internalType":"contract TrustScoreManager"}],"stateMutability":"view"},{"type":"event","name":"InvestmentDefaulted","inputs":[{"name":"harvestTokenId","type":"uint256","indexed":true,"internalType":"uint256"},{"name":"investor","type":"address","indexed":true,"internalType":"address"},{"name":"amount","type":"uint256","indexed":false,"internalType":"uint256"}],"anonymous":false},{"type":"event","name":"InvestmentMade","inputs":[{"name":"investor","type":"address","indexed":true,"internalType":"address"},{"name":"harvestTokenId","type":"uint256","indexed":true,"internalType":"uint256"},{"name":"amount","type":"uint256","indexed":false,"internalType":"uint256"},{"name":"investedAt","type":"uint256","indexed":false,"internalType":"uint256"}],"anonymous":false},{"type":"event","name":"InvestmentRepaid","inputs":[{"name":"harvestTokenId","type":"uint256","indexed":true,"internalType":"uint256"},{"name":"investor","type":"address","indexed":true,"internalType":"address"},{"name":"amount","type":"uint256","indexed":false,"internalType":"uint256"},{"name":"interest","type":"uint256","indexed":false,"internalType":"uint256"}],"anonymous":false},{"type":"event","name":"OwnershipTransferred","inputs":[{"name":"previousOwner","type":"address","indexed":true,"internalType":"address"},{"name":"newOwner","type":"address","indexed":true,"internalType":"address"}],"anonymous":false}],"bytecode":{"object":"0x60806040523480156200001157600080fd5b5060405162001b4738038062001b478339810160408190526200003491620000f3565b6200003f3362000086565b60018055600280546001600160a01b039485166001600160a01b0319918216179091556003805493851693821693909317909255600480549190931691161790556200013d565b600080546001600160a01b038381166001600160a01b0319831681178455604051919092169283917f8be0079c531659141344cd1fd0a4f28419497f9722a3daafe3b4186f6b6457e09190a35050565b80516001600160a01b0381168114620000ee57600080fd5b919050565b6000806000606084860312156200010957600080fd5b6200011484620000d6565b92506200012460208501620000d6565b91506200013460408501620000d6565b90509250925092565b6119fa806200014d6000396000f3fe608060405234801561001057600080fd5b50600436106100f55760003560e01c8063811ff24a11610097578063d87aa64311610066578063d87aa64314610208578063eef90b621461021b578063f0ea59b31461022e578063f2fde38b1461027557600080fd5b8063811ff24a146101ae578063886daef5146101d15780638da5cb5b146101e4578063ad034412146101f557600080fd5b80634c431f00116100d35780634c431f00146101605780636e78a01114610180578063715018a6146101935780637c7f67b01461019b57600080fd5b806305e1bd8c146100fa5780633013ce291461012057806330721bec1461014b575b600080fd5b61010d6101083660046115bd565b610288565b6040519081526020015b60405180910390f35b600454610133906001600160a01b031681565b6040516001600160a01b039091168152602001610117565b61015e6101593660046115e9565b6102d0565b005b61017361016e366004611617565b6108c9565b6040516101179190611676565b600354610133906001600160a01b031681565b61015e610935565b61010d6101a93660046115e9565b610949565b6101c16101bc3660046115e9565b610a36565b6040516101179493929190611689565b600254610133906001600160a01b031681565b6000546001600160a01b0316610133565b61015e6102033660046115e9565b610d2a565b61015e610216366004611739565b610f83565b61010d61022936600461175b565b6113b8565b61024161023c366004611739565b6113e9565b604080516001600160a01b03909616865260208601949094529284019190915215156060830152608082015260a001610117565b61015e610283366004611617565b611444565b600080610295844261179d565b90506301e133806102a78160646117b6565b826102b286896117b6565b6102bc91906117b6565b6102c691906117cd565b9695505050505050565b6102d86114ba565b600254604051639e2ba76360e01b8152600481018390526000918291829182916001600160a01b0390911690639e2ba76390602401600060405180830381865afa15801561032a573d6000803e3d6000fd5b505050506040513d6000823e601f3d908101601f19168201604052610352919081019061181a565b505050945094509450509350836001600160a01b0316336001600160a01b0316146103bc5760405162461bcd60e51b81526020600482015260156024820152744f6e6c79206661726d65722063616e20726570617960581b60448201526064015b60405180910390fd5b806103d95760405162461bcd60e51b81526004016103b390611938565b600085815260056020526040812090805b82548110156104c45782818154811061040557610405611967565b600091825260209091206003600590920201015460ff166104b257600061047384838154811061043757610437611967565b90600052602060002090600502016001015485848154811061045b5761045b611967565b90600052602060002090600502016002015488610288565b90508084838154811061048857610488611967565b9060005260206000209060050201600101546104a4919061197d565b6104ae908461197d565b9250505b806104bc81611990565b9150506103ea565b50600480546040516323b872dd60e01b81523392810192909252306024830152604482018390526001600160a01b0316906323b872dd906064016020604051808303816000875af115801561051d573d6000803e3d6000fd5b505050506040513d601f19601f8201168201806040525081019061054191906119a9565b61058d5760405162461bcd60e51b815260206004820152601960248201527f52657061796d656e74207472616e73666572206661696c65640000000000000060448201526064016103b3565b60005b82548110156107f2578281815481106105ab576105ab611967565b600091825260209091206003600590920201015460ff166107e05760006105dd84838154811061043757610437611967565b90506000818584815481106105f4576105f4611967565b906000526020600020906005020160010154610610919061197d565b60045486549192506001600160a01b03169063a9059cbb9087908690811061063a5761063a611967565b600091825260209091206005909102015460405160e083901b6001600160e01b03191681526001600160a01b039091166004820152602481018490526044016020604051808303816000875af1158015610698573d6000803e3d6000fd5b505050506040513d601f19601f820116820180604052508101906106bc91906119a9565b6107085760405162461bcd60e51b815260206004820152601860248201527f496e766573746f72207472616e73666572206661696c6564000000000000000060448201526064016103b3565b600185848154811061071c5761071c611967565b906000526020600020906005020160030160006101000a81548160ff02191690831515021790555084838154811061075657610756611967565b600091825260209091206005909102015485546001600160a01b03909116908b907f76931bb197c053f2de548e096c7e2c8f529e821b1254c014a1c1d2f7e041fc2f908890879081106107ab576107ab611967565b906000526020600020906005020160010154856040516107d5929190918252602082015260400190565b60405180910390a350505b806107ea81611990565b915050610590565b50600354604051638388131160e01b81526001600160a01b0388811660048301526001602483015290911690638388131190604401600060405180830381600087803b15801561084157600080fd5b505af1158015610855573d6000803e3d6000fd5b50506002546040516386a3dfbf60e01b8152600481018b90526001600160a01b0390911692506386a3dfbf9150602401600060405180830381600087803b15801561089f57600080fd5b505af11580156108b3573d6000803e3d6000fd5b505050505050505050506108c660018055565b50565b6001600160a01b03811660009081526006602090815260409182902080548351818402810184019094528084526060939283018282801561092957602002820191906000526020600020905b815481526020019060010190808311610915575b50505050509050919050565b61093d611513565b610947600061156d565b565b600081815260056020908152604080832080548251818502810185019093528083528493849084015b828210156109de5760008481526020908190206040805160a0810182526005860290920180546001600160a01b0316835260018082015484860152600282015492840192909252600381015460ff16151560608401526004015460808301529083529092019101610972565b5050505090506000805b8251811015610a2e57828181518110610a0357610a03611967565b60200260200101516020015182610a1a919061197d565b915080610a2681611990565b9150506109e8565b509392505050565b606080606080600060056000878152602001908152602001600020805480602002602001604051908101604052809291908181526020016000905b82821015610add5760008481526020908190206040805160a0810182526005860290920180546001600160a01b0316835260018082015484860152600282015492840192909252600381015460ff16151560608401526004015460808301529083529092019101610a71565b505050509050805167ffffffffffffffff811115610afd57610afd611804565b604051908082528060200260200182016040528015610b26578160200160208202803683370190505b509450805167ffffffffffffffff811115610b4357610b43611804565b604051908082528060200260200182016040528015610b6c578160200160208202803683370190505b509350805167ffffffffffffffff811115610b8957610b89611804565b604051908082528060200260200182016040528015610bb2578160200160208202803683370190505b509250805167ffffffffffffffff811115610bcf57610bcf611804565b604051908082528060200260200182016040528015610bf8578160200160208202803683370190505b50915060005b8151811015610d2157818181518110610c1957610c19611967565b602002602001015160000151868281518110610c3757610c37611967565b60200260200101906001600160a01b031690816001600160a01b031681525050818181518110610c6957610c69611967565b602002602001015160200151858281518110610c8757610c87611967565b602002602001018181525050818181518110610ca557610ca5611967565b602002602001015160400151848281518110610cc357610cc3611967565b602002602001018181525050818181518110610ce157610ce1611967565b602002602001015160600151838281518110610cff57610cff611967565b9115156020928302919091019091015280610d1981611990565b915050610bfe565b50509193509193565b610d32611513565b600254604051639e2ba76360e01b81526004810183905260009182916001600160a01b0390911690639e2ba76390602401600060405180830381865afa158015610d80573d6000803e3d6000fd5b505050506040513d6000823e601f3d908101601f19168201604052610da8919081019061181a565b5050509450505050915080610dcf5760405162461bcd60e51b81526004016103b390611938565b6000838152600560205260408120905b8154811015610eb857818181548110610dfa57610dfa611967565b600091825260209091206003600590920201015460ff16610ea657818181548110610e2757610e27611967565b600091825260209091206005909102015482546001600160a01b039091169086907f5559e342068fc61531aac654d6a69ea014b64bab7343e8da8cae7c4226f0769890859085908110610e7c57610e7c611967565b906000526020600020906005020160010154604051610e9d91815260200190565b60405180910390a35b80610eb081611990565b915050610ddf565b50600354604051638388131160e01b81526001600160a01b0385811660048301526000602483015290911690638388131190604401600060405180830381600087803b158015610f0757600080fd5b505af1158015610f1b573d6000803e3d6000fd5b5050600254604051638f6e391160e01b8152600481018890526001600160a01b039091169250638f6e39119150602401600060405180830381600087803b158015610f6557600080fd5b505af1158015610f79573d6000803e3d6000fd5b5050505050505050565b610f8b6114ba565b600254604051639e2ba76360e01b8152600481018490526000918291829182916001600160a01b0390911690639e2ba76390602401600060405180830381865afa158015610fdd573d6000803e3d6000fd5b505050506040513d6000823e601f3d908101601f19168201604052611005919081019061181a565b5050509450509350935093508061102e5760405162461bcd60e51b81526004016103b390611938565b81421061107d5760405162461bcd60e51b815260206004820152601760248201527f486172766573742064617465206861732070617373656400000000000000000060448201526064016103b3565b600085116110cd5760405162461bcd60e51b815260206004820152601d60248201527f416d6f756e74206d7573742062652067726561746572207468616e203000000060448201526064016103b3565b60006110d887610949565b9050836110e5878361197d565b11156111445760405162461bcd60e51b815260206004820152602860248201527f496e766573746d656e7420776f756c64206578636565642072657175657374656044820152671908185b5bdd5b9d60c21b60648201526084016103b3565b600480546040516323b872dd60e01b81523392810192909252306024830152604482018890526001600160a01b0316906323b872dd906064016020604051808303816000875af115801561119c573d6000803e3d6000fd5b505050506040513d601f19601f820116820180604052508101906111c091906119a9565b6111fe5760405162461bcd60e51b815260206004820152600f60248201526e151c985b9cd9995c8819985a5b1959608a1b60448201526064016103b3565b6040805160a0810182523380825260208083018a815242848601908152600060608601818152608087018f81528f835260058087528984208054600180820183559186528886208b519190930290920180546001600160a01b0319166001600160a01b0393841617815596518782015594516002870155915160038601805460ff19169115159190911790555160049485015594815260068452868120805492830181558152929092209091018b90558054935163a9059cbb60e01b815289831691810191909152602481018a90529192169063a9059cbb906044016020604051808303816000875af11580156112f9573d6000803e3d6000fd5b505050506040513d601f19601f8201168201806040525081019061131d91906119a9565b6113695760405162461bcd60e51b815260206004820152601960248201527f5472616e7366657220746f206661726d6572206661696c65640000000000000060448201526064016103b3565b60408051888152426020820152899133917f31cd8a3fe169cfff51ef703af8de4ec23e1831a178101deb1fbb931a4ddda4be910160405180910390a35050505050506113b460018055565b5050565b600660205281600052604060002081815481106113d457600080fd5b90600052602060002001600091509150505481565b6005602052816000526040600020818154811061140557600080fd5b6000918252602090912060059091020180546001820154600283015460038401546004909401546001600160a01b0390931695509093509160ff169085565b61144c611513565b6001600160a01b0381166114b15760405162461bcd60e51b815260206004820152602660248201527f4f776e61626c653a206e6577206f776e657220697320746865207a65726f206160448201526564647265737360d01b60648201526084016103b3565b6108c68161156d565b60026001540361150c5760405162461bcd60e51b815260206004820152601f60248201527f5265656e7472616e637947756172643a207265656e7472616e742063616c6c0060448201526064016103b3565b6002600155565b6000546001600160a01b031633146109475760405162461bcd60e51b815260206004820181905260248201527f4f776e61626c653a2063616c6c6572206973206e6f7420746865206f776e657260448201526064016103b3565b600080546001600160a01b038381166001600160a01b0319831681178455604051919092169283917f8be0079c531659141344cd1fd0a4f28419497f9722a3daafe3b4186f6b6457e09190a35050565b6000806000606084860312156115d257600080fd5b505081359360208301359350604090920135919050565b6000602082840312156115fb57600080fd5b5035919050565b6001600160a01b03811681146108c657600080fd5b60006020828403121561162957600080fd5b813561163481611602565b9392505050565b600081518084526020808501945080840160005b8381101561166b5781518752958201959082019060010161164f565b509495945050505050565b602081526000611634602083018461163b565b6080808252855190820181905260009060209060a0840190828901845b828110156116cb5781516001600160a01b0316845292840192908401906001016116a6565b505050838103828501526116df818861163b565b905083810360408501526116f3818761163b565b8481036060860152855180825283870192509083019060005b8181101561172a57835115158352928401929184019160010161170c565b50909998505050505050505050565b6000806040838503121561174c57600080fd5b50508035926020909101359150565b6000806040838503121561176e57600080fd5b823561177981611602565b946020939093013593505050565b634e487b7160e01b600052601160045260246000fd5b818103818111156117b0576117b0611787565b92915050565b80820281158282048414176117b0576117b0611787565b6000826117ea57634e487b7160e01b600052601260045260246000fd5b500490565b805180151581146117ff57600080fd5b919050565b634e487b7160e01b600052604160045260246000fd5b600080600080600080600080610100898b03121561183757600080fd5b885161184281611602565b809850506020808a0151975060408a0151965060608a0151955061186860808b016117ef565b945060a08a015167ffffffffffffffff8082111561188557600080fd5b818c0191508c601f83011261189957600080fd5b8151818111156118ab576118ab611804565b604051601f8201601f19908116603f011681019083821181831017156118d3576118d3611804565b816040528281528f868487010111156118eb57600080fd5b600093505b8284101561190d57848401860151818501870152928501926118f0565b60009281019095019190915250505060c08a015160e0909a0151989b979a5095989497939692505050565b60208082526015908201527448617276657374206973206e6f742061637469766560581b604082015260600190565b634e487b7160e01b600052603260045260246000fd5b808201808211156117b0576117b0611787565b6000600182016119a2576119a2611787565b5060010190565b6000602082840312156119bb57600080fd5b611634826117ef56fea2646970667358221220d8def3a3bc01511f705c667b78117cca90c445bd318cfcefacf13c4097e0f3d464736f6c63430008130033","linkReferences":{}},"methodIdentifiers":{"calculateInterest(uint256,uint256,uint256)":"05e1bd8c","defaultInvestment(uint256)":"ad034412","getHarvestInvestments(uint256)":"811ff24a","getInvestorInvestments(address)":"4c431f00","getTotalInvestedAmount(uint256)":"7c7f67b0","harvestInvestments(uint256,uint256)":"f0ea59b3","harvestToken()":"886daef5","invest(uint256,uint256)":"d87aa643","investorInvestments(address,uint256)":"eef90b62","owner()":"8da5cb5b","paymentToken()":"3013ce29","renounceOwnership()":"715018a6","repayInvestment(uint256)":"30721bec","transferOwnership(address)":"f2fde38b","trustScoreManager()":"6e78a011"},"id":0}