{"abi":[{"type":"function","name":"INITIAL_SCORE","inputs":[],"outputs":[{"name":"","type":"uint256","internalType":"uint256"}],"stateMutability":"view"},{"type":"function","name":"MAX_SCORE","inputs":[],"outputs":[{"name":"","type":"uint256","internalType":"uint256"}],"stateMutability":"view"},{"type":"function","name":"MIN_SCORE","inputs":[],"outputs":[{"name":"","type":"uint256","internalType":"uint256"}],"stateMutability":"view"},{"type":"function","name":"NEGATIVE_ADJUSTMENT","inputs":[],"outputs":[{"name":"","type":"uint256","internalType":"uint256"}],"stateMutability":"view"},{"type":"function","name":"POSITIVE_ADJUSTMENT","inputs":[],"outputs":[{"name":"","type":"uint256","internalType":"uint256"}],"stateMutability":"view"},{"type":"function","name":"authorizeContract","inputs":[{"name":"contractAddress","type":"address","internalType":"address"}],"outputs":[],"stateMutability":"nonpayable"},{"type":"function","name":"authorizedContracts","inputs":[{"name":"","type":"address","internalType":"address"}],"outputs":[{"name":"","type":"bool","internalType":"bool"}],"stateMutability":"view"},{"type":"function","name":"deauthorizeContract","inputs":[{"name":"contractAddress","type":"address","internalType":"address"}],"outputs":[],"stateMutability":"nonpayable"},{"type":"function","name":"getScore","inputs":[{"name":"farmer","type":"address","internalType":"address"}],"outputs":[{"name":"score","type":"uint256","internalType":"uint256"},{"name":"successfulDeals","type":"uint256","internalType":"uint256"},{"name":"totalDeals","type":"uint256","internalType":"uint256"},{"name":"lastUpdated","type":"uint256","internalType":"uint256"}],"stateMutability":"view"},{"type":"function","name":"owner","inputs":[],"outputs":[{"name":"","type":"address","internalType":"address"}],"stateMutability":"view"},{"type":"function","name":"renounceOwnership","inputs":[],"outputs":[],"stateMutability":"nonpayable"},{"type":"function","name":"transferOwnership","inputs":[{"name":"newOwner","type":"address","internalType":"address"}],"outputs":[],"stateMutability":"nonpayable"},{"type":"function","name":"trustScores","inputs":[{"name":"","type":"address","internalType":"address"}],"outputs":[{"name":"score","type":"uint256","internalType":"uint256"},{"name":"successfulDeals","type":"uint256","internalType":"uint256"},{"name":"totalDeals","type":"uint256","internalType":"uint256"},{"name":"lastUpdated","type":"uint256","internalType":"uint256"}],"stateMutability":"view"},{"type":"function","name":"updateScore","inputs":[{"name":"farmer","type":"address","internalType":"address"},{"name":"isPositive","type":"bool","internalType":"bool"}],"outputs":[],"stateMutability":"nonpayable"},{"type":"event","name":"ContractAuthorized","inputs":[{"name":"contractAddress","type":"address","indexed":true,"internalType":"address"}],"anonymous":false},{"type":"event","name":"ContractDeauthorized","inputs":[{"name":"contractAddress","type":"address","indexed":true,"internalType":"address"}],"anonymous":false},{"type":"event","name":"OwnershipTransferred","inputs":[{"name":"previousOwner","type":"address","indexed":true,"internalType":"address"},{"name":"newOwner","type":"address","indexed":true,"internalType":"address"}],"anonymous":false},{"type":"event","name":"ScoreUpdated","inputs":[{"name":"farmer","type":"address","indexed":true,"internalType":"address"},{"name":"oldScore","type":"uint256","indexed":false,"internalType":"uint256"},{"name":"newScore","type":"uint256","indexed":false,"internalType":"uint256"},{"name":"isPositive","type":"bool","indexed":false,"internalType":"bool"}],"anonymous":false}],"bytecode":{"object":"0x608060405234801561001057600080fd5b5061001a3361001f565b61006f565b600080546001600160a01b038381166001600160a01b0319831681178455604051919092169283917f8be0079c531659141344cd1fd0a4f28419497f9722a3daafe3b4186f6b6457e09190a35050565b6108d58061007e6000396000f3fe608060405234801561001057600080fd5b50600436106100ea5760003560e01c8063838813111161008c578063d47875d011610066578063d47875d0146101d6578063d5b9221b14610237578063de3303731461026a578063f2fde38b1461027257600080fd5b806383881311146101a057806383e21349146101b35780638da5cb5b146101bb57600080fd5b80635b3d9bbb116100c85780635b3d9bbb1461016857806367561d93146101705780636e861c0e14610185578063715018a61461019857600080fd5b806312df0fc4146100ef57806327ff62231461014a57806340b8927014610160575b600080fd5b6101256100fd3660046107f3565b6001602081905260009182526040909120805491810154600282015460039092015490919084565b6040805194855260208501939093529183015260608201526080015b60405180910390f35b610152606481565b604051908152602001610141565b610152600081565b610152600581565b61018361017e3660046107f3565b610285565b005b6101836101933660046107f3565b610384565b61018361042e565b6101836101ae36600461080e565b610442565b610152600a81565b6000546040516001600160a01b039091168152602001610141565b6101256101e43660046107f3565b6001600160a01b0316600090815260016020818152604092839020835160808101855281548082529382015492810183905260028201549481018590526003909101546060909101819052919390929190565b61025a6102453660046107f3565b60026020526000908152604090205460ff1681565b6040519015158152602001610141565b610152603281565b6101836102803660046107f3565b6105ca565b61028d610643565b6001600160a01b0381166102da5760405162461bcd60e51b815260206004820152600f60248201526e496e76616c6964206164647265737360881b60448201526064015b60405180910390fd5b6001600160a01b03811660009081526002602052604090205460ff16156103385760405162461bcd60e51b8152602060048201526012602482015271105b1c9958591e48185d5d1a1bdc9a5e995960721b60448201526064016102d1565b6001600160a01b038116600081815260026020526040808220805460ff19166001179055517f8983a1f3c3cb45c24c8226b5b805e3b6eb49686530b808534b2a920129eff6519190a250565b61038c610643565b6001600160a01b03811660009081526002602052604090205460ff166103e55760405162461bcd60e51b815260206004820152600e60248201526d139bdd08185d5d1a1bdc9a5e995960921b60448201526064016102d1565b6001600160a01b038116600081815260026020526040808220805460ff19169055517f54142b7cb3ceaa9e564243ce4cc2303723c842a1144192de6b3c594f68b16a9a9190a250565b610436610643565b610440600061069d565b565b6000546001600160a01b031633148061046a57503360009081526002602052604090205460ff165b6104a75760405162461bcd60e51b815260206004820152600e60248201526d139bdd08185d5d1a1bdc9a5e995960921b60448201526064016102d1565b6001600160a01b03821660009081526001602052604081206003015490036104d2576104d2826106ed565b6001600160a01b0382166000908152600160205260409020805482156105295760018201805490600061050483610860565b909155505081546105229061051b90600590610879565b60646107ae565b8255610557565b610554600a83600001541161053f57600061054d565b825461054d90600a9061088c565b60006107c8565b82555b60028201805490600061056983610860565b90915550504260038301558154604080518381526020810192909252841515908201526001600160a01b038516907f567e350b684cadcffd08a11654f26987d7d19424ceac1209d7b56a5064866a039060600160405180910390a250505050565b6105d2610643565b6001600160a01b0381166106375760405162461bcd60e51b815260206004820152602660248201527f4f776e61626c653a206e6577206f776e657220697320746865207a65726f206160448201526564647265737360d01b60648201526084016102d1565b6106408161069d565b50565b6000546001600160a01b031633146104405760405162461bcd60e51b815260206004820181905260248201527f4f776e61626c653a2063616c6c6572206973206e6f7420746865206f776e657260448201526064016102d1565b600080546001600160a01b038381166001600160a01b0319831681178455604051919092169283917f8be0079c531659141344cd1fd0a4f28419497f9722a3daafe3b4186f6b6457e09190a35050565b6001600160a01b038116600090815260016020526040902060030154156107565760405162461bcd60e51b815260206004820152601960248201527f53636f726520616c726561647920696e697469616c697a65640000000000000060448201526064016102d1565b60408051608081018252603281526000602080830182815283850183815242606086019081526001600160a01b0390971684526001928390529490922092518355905190820155905160028201559051600390910155565b60008183106107bd57816107bf565b825b90505b92915050565b60008183116107bd57816107bf565b80356001600160a01b03811681146107ee57600080fd5b919050565b60006020828403121561080557600080fd5b6107bf826107d7565b6000806040838503121561082157600080fd5b61082a836107d7565b91506020830135801515811461083f57600080fd5b809150509250929050565b634e487b7160e01b600052601160045260246000fd5b6000600182016108725761087261084a565b5060010190565b808201808211156107c2576107c261084a565b818103818111156107c2576107c261084a56fea2646970667358221220cadaa63558601082f8cd36394c54a7349ebaeaa63a5f7b91f04e238b5f5412ae64736f6c63430008130033","linkReferences":{}},"methodIdentifiers":{"INITIAL_SCORE()":"de330373","MAX_SCORE()":"27ff6223","MIN_SCORE()":"40b89270","NEGATIVE_ADJUSTMENT()":"83e21349","POSITIVE_ADJUSTMENT()":"5b3d9bbb","authorizeContract(address)":"67561d93","authorizedContracts(address)":"d5b9221b","deauthorizeContract(address)":"6e861c0e","getScore(address)":"d47875d0","owner()":"8da5cb5b","renounceOwnership()":"715018a6","transferOwnership(address)":"f2fde38b","trustScores(address)":"12df0fc4","updateScore(address,bool)":"83881311"},"id":2}