{"abi":[{"type":"constructor","inputs":[],"stateMutability":"nonpayable"},{"type":"function","name":"approve","inputs":[{"name":"to","type":"address","internalType":"address"},{"name":"tokenId","type":"uint256","internalType":"uint256"}],"outputs":[],"stateMutability":"nonpayable"},{"type":"function","name":"balanceOf","inputs":[{"name":"owner","type":"address","internalType":"address"}],"outputs":[{"name":"","type":"uint256","internalType":"uint256"}],"stateMutability":"view"},{"type":"function","name":"completeHarvest","inputs":[{"name":"tokenId","type":"uint256","internalType":"uint256"}],"outputs":[],"stateMutability":"nonpayable"},{"type":"function","name":"defaultHarvest","inputs":[{"name":"tokenId","type":"uint256","internalType":"uint256"}],"outputs":[],"stateMutability":"nonpayable"},{"type":"function","name":"farmerTokens","inputs":[{"name":"","type":"address","internalType":"address"},{"name":"","type":"uint256","internalType":"uint256"}],"outputs":[{"name":"","type":"uint256","internalType":"uint256"}],"stateMutability":"view"},{"type":"function","name":"getApproved","inputs":[{"name":"tokenId","type":"uint256","internalType":"uint256"}],"outputs":[{"name":"","type":"address","internalType":"address"}],"stateMutability":"view"},{"type":"function","name":"getFarmerTokens","inputs":[{"name":"farmer","type":"address","internalType":"address"}],"outputs":[{"name":"","type":"uint256[]","internalType":"uint256[]"}],"stateMutability":"view"},{"type":"function","name":"getHarvestDetails","inputs":[{"name":"tokenId","type":"uint256","internalType":"uint256"}],"outputs":[{"name":"farmer","type":"address","internalType":"address"},{"name":"amount","type":"uint256","internalType":"uint256"},{"name":"harvestDate","type":"uint256","internalType":"uint256"},{"name":"apy","type":"uint256","internalType":"uint256"},{"name":"isActive","type":"bool","internalType":"bool"},{"name":"cropType","type":"string","internalType":"string"},{"name":"quantity","type":"uint256","internalType":"uint256"},{"name":"createdAt","type":"uint256","internalType":"uint256"}],"stateMutability":"view"},{"type":"function","name":"harvests","inputs":[{"name":"","type":"uint256","internalType":"uint256"}],"outputs":[{"name":"farmer","type":"address","internalType":"address"},{"name":"amount","type":"uint256","internalType":"uint256"},{"name":"harvestDate","type":"uint256","internalType":"uint256"},{"name":"apy","type":"uint256","internalType":"uint256"},{"name":"isActive","type":"bool","internalType":"bool"},{"name":"cropType","type":"string","internalType":"string"},{"name":"quantity","type":"uint256","internalType":"uint256"},{"name":"createdAt","type":"uint256","internalType":"uint256"}],"stateMutability":"view"},{"type":"function","name":"investmentContract","inputs":[],"outputs":[{"name":"","type":"address","internalType":"address"}],"stateMutability":"view"},{"type":"function","name":"isApprovedForAll","inputs":[{"name":"owner","type":"address","internalType":"address"},{"name":"operator","type":"address","internalType":"address"}],"outputs":[{"name":"","type":"bool","internalType":"bool"}],"stateMutability":"view"},{"type":"function","name":"name","inputs":[],"outputs":[{"name":"","type":"string","internalType":"string"}],"stateMutability":"view"},{"type":"function","name":"owner","inputs":[],"outputs":[{"name":"","type":"address","internalType":"address"}],"stateMutability":"view"},{"type":"function","name":"ownerOf","inputs":[{"name":"tokenId","type":"uint256","internalType":"uint256"}],"outputs":[{"name":"","type":"address","internalType":"address"}],"stateMutability":"view"},{"type":"function","name":"renounceOwnership","inputs":[],"outputs":[],"stateMutability":"nonpayable"},{"type":"function","name":"safeTransferFrom","inputs":[{"name":"from","type":"address","internalType":"address"},{"name":"to","type":"address","internalType":"address"},{"name":"tokenId","type":"uint256","internalType":"uint256"}],"outputs":[],"stateMutability":"nonpayable"},{"type":"function","name":"safeTransferFrom","inputs":[{"name":"from","type":"address","internalType":"address"},{"name":"to","type":"address","internalType":"address"},{"name":"tokenId","type":"uint256","internalType":"uint256"},{"name":"data","type":"bytes","internalType":"bytes"}],"outputs":[],"stateMutability":"nonpayable"},{"type":"function","name":"setApprovalForAll","inputs":[{"name":"operator","type":"address","internalType":"address"},{"name":"approved","type":"bool","internalType":"bool"}],"outputs":[],"stateMutability":"nonpayable"},{"type":"function","name":"setInvestmentContract","inputs":[{"name":"_contract","type":"address","internalType":"address"}],"outputs":[],"stateMutability":"nonpayable"},{"type":"function","name":"supportsInterface","inputs":[{"name":"interfaceId","type":"bytes4","internalType":"bytes4"}],"outputs":[{"name":"","type":"bool","internalType":"bool"}],"stateMutability":"view"},{"type":"function","name":"symbol","inputs":[],"outputs":[{"name":"","type":"string","internalType":"string"}],"stateMutability":"view"},{"type":"function","name":"tokenURI","inputs":[{"name":"tokenId","type":"uint256","internalType":"uint256"}],"outputs":[{"name":"","type":"string","internalType":"string"}],"stateMutability":"view"},{"type":"function","name":"tokenizeHarvest","inputs":[{"name":"amount","type":"uint256","internalType":"uint256"},{"name":"harvestDate","type":"uint256","internalType":"uint256"},{"name":"apy","type":"uint256","internalType":"uint256"},{"name":"cropType","type":"string","internalType":"string"},{"name":"quantity","type":"uint256","internalType":"uint256"}],"outputs":[{"name":"","type":"uint256","internalType":"uint256"}],"stateMutability":"nonpayable"},{"type":"function","name":"transferFrom","inputs":[{"name":"from","type":"address","internalType":"address"},{"name":"to","type":"address","internalType":"address"},{"name":"tokenId","type":"uint256","internalType":"uint256"}],"outputs":[],"stateMutability":"nonpayable"},{"type":"function","name":"transferOwnership","inputs":[{"name":"newOwner","type":"address","internalType":"address"}],"outputs":[],"stateMutability":"nonpayable"},{"type":"event","name":"Approval","inputs":[{"name":"owner","type":"address","indexed":true,"internalType":"address"},{"name":"approved","type":"address","indexed":true,"internalType":"address"},{"name":"tokenId","type":"uint256","indexed":true,"internalType":"uint256"}],"anonymous":false},{"type":"event","name":"ApprovalForAll","inputs":[{"name":"owner","type":"address","indexed":true,"internalType":"address"},{"name":"operator","type":"address","indexed":true,"internalType":"address"},{"name":"approved","type":"bool","indexed":false,"internalType":"bool"}],"anonymous":false},{"type":"event","name":"HarvestCompleted","inputs":[{"name":"tokenId","type":"uint256","indexed":true,"internalType":"uint256"}],"anonymous":false},{"type":"event","name":"HarvestDefaulted","inputs":[{"name":"tokenId","type":"uint256","indexed":true,"internalType":"uint256"}],"anonymous":false},{"type":"event","name":"HarvestTokenized","inputs":[{"name":"tokenId","type":"uint256","indexed":true,"internalType":"uint256"},{"name":"farmer","type":"address","indexed":true,"internalType":"address"},{"name":"amount","type":"uint256","indexed":false,"internalType":"uint256"},{"name":"harvestDate","type":"uint256","indexed":false,"internalType":"uint256"},{"name":"apy","type":"uint256","indexed":false,"internalType":"uint256"},{"name":"cropType","type":"string","indexed":false,"internalType":"string"},{"name":"quantity","type":"uint256","indexed":false,"internalType":"uint256"}],"anonymous":false},{"type":"event","name":"OwnershipTransferred","inputs":[{"name":"previousOwner","type":"address","indexed":true,"internalType":"address"},{"name":"newOwner","type":"address","indexed":true,"internalType":"address"}],"anonymous":false},{"type":"event","name":"Transfer","inputs":[{"name":"from","type":"address","indexed":true,"internalType":"address"},{"name":"to","type":"address","indexed":true,"internalType":"address"},{"name":"tokenId","type":"uint256","indexed":true,"internalType":"uint256"}],"anonymous":false}],"bytecode":{"object":"0x60806040523480156200001157600080fd5b506040518060400160405280600c81526020016b2430b93b32b9ba2a37b5b2b760a11b8152506040518060400160405280600581526020016412149594d560da1b815250816000908162000066919062000193565b50600162000075828262000193565b505050620000926200008c6200009860201b60201c565b6200009c565b6200025f565b3390565b600680546001600160a01b038381166001600160a01b0319831681179093556040519116919082907f8be0079c531659141344cd1fd0a4f28419497f9722a3daafe3b4186f6b6457e090600090a35050565b634e487b7160e01b600052604160045260246000fd5b600181811c908216806200011957607f821691505b6020821081036200013a57634e487b7160e01b600052602260045260246000fd5b50919050565b601f8211156200018e57600081815260208120601f850160051c81016020861015620001695750805b601f850160051c820191505b818110156200018a5782815560010162000175565b5050505b505050565b81516001600160401b03811115620001af57620001af620000ee565b620001c781620001c0845462000104565b8462000140565b602080601f831160018114620001ff5760008415620001e65750858301515b600019600386901b1c1916600185901b1785556200018a565b600085815260208120601f198616915b8281101562000230578886015182559484019460019091019084016200020f565b50858210156200024f5787850151600019600388901b60f8161c191681555b5050505050600190811b01905550565b61204f806200026f6000396000f3fe608060405234801561001057600080fd5b50600436106101735760003560e01c80638da5cb5b116100de578063c87b56dd11610097578063db8e1c2311610071578063db8e1c231461034f578063e985e9c514610362578063f2fde38b14610375578063fd2bf99e1461038857600080fd5b8063c87b56dd14610316578063cb4156aa14610329578063d9035ef31461033c57600080fd5b80638da5cb5b146102b15780638f6e3911146102c257806395d89b41146102d55780639e2ba763146102dd578063a22cb465146102f0578063b88d4fde1461030357600080fd5b806342842e0e1161013057806342842e0e1461022f5780634c388dd7146102425780636352211e1461026257806370a0823114610275578063715018a61461029657806386a3dfbf1461029e57600080fd5b806301ffc9a71461017857806306fdde03146101a0578063081812fc146101b5578063095ea7b3146101e057806323b872dd146101f557806335a423b014610208575b600080fd5b61018b6101863660046118c7565b61039b565b60405190151581526020015b60405180910390f35b6101a86103ed565b6040516101979190611934565b6101c86101c3366004611947565b61047f565b6040516001600160a01b039091168152602001610197565b6101f36101ee36600461197c565b6104a6565b005b6101f36102033660046119a6565b6105c0565b61021b610216366004611947565b6105f1565b6040516101979897969594939291906119e2565b6101f361023d3660046119a6565b6106cc565b610255610250366004611a36565b6106e7565b6040516101979190611a51565b6101c8610270366004611947565b610753565b610288610283366004611a36565b6107b3565b604051908152602001610197565b6101f3610839565b6101f36102ac366004611947565b61084d565b6006546001600160a01b03166101c8565b6101f36102d0366004611947565b610935565b6101a8610a1d565b61021b6102eb366004611947565b610a2c565b6101f36102fe366004611a95565b610ba7565b6101f3610311366004611b5d565b610bb6565b6101a8610324366004611947565b610bee565b6101f3610337366004611a36565b610c62565b61028861034a36600461197c565b610c8c565b61028861035d366004611bd9565b610cbd565b61018b610370366004611c4f565b610ef6565b6101f3610383366004611a36565b610f24565b600a546101c8906001600160a01b031681565b60006001600160e01b031982166380ac58cd60e01b14806103cc57506001600160e01b03198216635b5e139f60e01b145b806103e757506301ffc9a760e01b6001600160e01b03198316145b92915050565b6060600080546103fc90611c82565b80601f016020809104026020016040519081016040528092919081815260200182805461042890611c82565b80156104755780601f1061044a57610100808354040283529160200191610475565b820191906000526020600020905b81548152906001019060200180831161045857829003601f168201915b5050505050905090565b600061048a82610f9d565b506000908152600460205260409020546001600160a01b031690565b60006104b182610753565b9050806001600160a01b0316836001600160a01b0316036105235760405162461bcd60e51b815260206004820152602160248201527f4552433732313a20617070726f76616c20746f2063757272656e74206f776e656044820152603960f91b60648201526084015b60405180910390fd5b336001600160a01b038216148061053f575061053f8133610ef6565b6105b15760405162461bcd60e51b815260206004820152603d60248201527f4552433732313a20617070726f76652063616c6c6572206973206e6f7420746f60448201527f6b656e206f776e6572206f7220617070726f76656420666f7220616c6c000000606482015260840161051a565b6105bb8383610fed565b505050565b6105ca338261105b565b6105e65760405162461bcd60e51b815260040161051a90611cbc565b6105bb8383836110ba565b6008602052600090815260409020805460018201546002830154600384015460048501546005860180546001600160a01b039096169694959394929360ff909216929161063d90611c82565b80601f016020809104026020016040519081016040528092919081815260200182805461066990611c82565b80156106b65780601f1061068b576101008083540402835291602001916106b6565b820191906000526020600020905b81548152906001019060200180831161069957829003601f168201915b5050505050908060060154908060070154905088565b6105bb83838360405180602001604052806000815250610bb6565b6001600160a01b03811660009081526009602090815260409182902080548351818402810184019094528084526060939283018282801561074757602002820191906000526020600020905b815481526020019060010190808311610733575b50505050509050919050565b6000818152600260205260408120546001600160a01b0316806103e75760405162461bcd60e51b8152602060048201526018602482015277115490cdcc8c4e881a5b9d985b1a59081d1bdad95b88125160421b604482015260640161051a565b60006001600160a01b03821661081d5760405162461bcd60e51b815260206004820152602960248201527f4552433732313a2061646472657373207a65726f206973206e6f7420612076616044820152683634b21037bbb732b960b91b606482015260840161051a565b506001600160a01b031660009081526003602052604090205490565b61084161122b565b61084b6000611285565b565b600a546001600160a01b031633146108775760405162461bcd60e51b815260040161051a90611d09565b610880816112d7565b61089c5760405162461bcd60e51b815260040161051a90611d4a565b60008181526008602052604090206004015460ff166108f25760405162461bcd60e51b815260206004820152601260248201527148617276657374206e6f742061637469766560701b604482015260640161051a565b600081815260086020526040808220600401805460ff191690555182917f3c62f024362fa897ebc89aaa2cf3aefa1f6184f2733aabf1b1f90c690d7548ac91a250565b600a546001600160a01b0316331461095f5760405162461bcd60e51b815260040161051a90611d09565b610968816112d7565b6109845760405162461bcd60e51b815260040161051a90611d4a565b60008181526008602052604090206004015460ff166109da5760405162461bcd60e51b815260206004820152601260248201527148617276657374206e6f742061637469766560701b604482015260640161051a565b600081815260086020526040808220600401805460ff191690555182917f69e1f14e7941f4667f854fd7fe65b3cdf05b491e99fbce502397ce2d0ed91c9e91a250565b6060600180546103fc90611c82565b60008060008060006060600080610a42896112d7565b610a5e5760405162461bcd60e51b815260040161051a90611d4a565b600089815260086020908152604080832081516101008101835281546001600160a01b0316815260018201549381019390935260028101549183019190915260038101546060830152600481015460ff161515608083015260058101805460a084019190610acb90611c82565b80601f0160208091040260200160405190810160405280929190818152602001828054610af790611c82565b8015610b445780601f10610b1957610100808354040283529160200191610b44565b820191906000526020600020905b815481529060010190602001808311610b2757829003601f168201915b50505050508152602001600682015481526020016007820154815250509050806000015181602001518260400151836060015184608001518560a001518660c001518760e001519850985098509850985098509850985050919395975091939597565b610bb23383836112f4565b5050565b610bc0338361105b565b610bdc5760405162461bcd60e51b815260040161051a90611cbc565b610be8848484846113c2565b50505050565b6060610bf982610f9d565b6000610c1060408051602081019091526000815290565b90506000815111610c305760405180602001604052806000815250610c5b565b80610c3a846113f5565b604051602001610c4b929190611d78565b6040516020818303038152906040525b9392505050565b610c6a61122b565b600a80546001600160a01b0319166001600160a01b0392909216919091179055565b60096020528160005260406000208181548110610ca857600080fd5b90600052602060002001600091509150505481565b6000428511610d055760405162461bcd60e51b8152602060048201526014602482015273496e76616c69642068617276657374206461746560601b604482015260640161051a565b60008611610d555760405162461bcd60e51b815260206004820152601d60248201527f416d6f756e74206d7573742062652067726561746572207468616e2030000000604482015260640161051a565b60008211610da55760405162461bcd60e51b815260206004820152601f60248201527f5175616e74697479206d7573742062652067726561746572207468616e203000604482015260640161051a565b610db3600780546001019055565b6000610dbe60075490565b9050610dca3382611488565b604080516101008101825233815260208082018a81528284018a8152606084018a815260016080860181815260a087018c815260c088018c90524260e089015260008a8152600890975297909520865181546001600160a01b0319166001600160a01b0390911617815593519084015590516002830155516003820155905160048201805460ff191691151591909117905591519091906005820190610e709082611df5565b5060c0820151600682015560e090910151600790910155336000818152600960209081526040808320805460018101825590845291909220018390555182907f8a5e46696da87360058e58c1eeef1f9aeec47a4a2796d3a3563c49e2251d3a5990610ee4908b908b908b908b908b90611eb5565b60405180910390a39695505050505050565b6001600160a01b03918216600090815260056020908152604080832093909416825291909152205460ff1690565b610f2c61122b565b6001600160a01b038116610f915760405162461bcd60e51b815260206004820152602660248201527f4f776e61626c653a206e6577206f776e657220697320746865207a65726f206160448201526564647265737360d01b606482015260840161051a565b610f9a81611285565b50565b610fa6816112d7565b610f9a5760405162461bcd60e51b8152602060048201526018602482015277115490cdcc8c4e881a5b9d985b1a59081d1bdad95b88125160421b604482015260640161051a565b600081815260046020526040902080546001600160a01b0319166001600160a01b038416908117909155819061102282610753565b6001600160a01b03167f8c5be1e5ebec7d5bd14f71427d1e84f3dd0314c0f7b2291e5b200ac8c7c3b92560405160405180910390a45050565b60008061106783610753565b9050806001600160a01b0316846001600160a01b0316148061108e575061108e8185610ef6565b806110b25750836001600160a01b03166110a78461047f565b6001600160a01b0316145b949350505050565b826001600160a01b03166110cd82610753565b6001600160a01b0316146110f35760405162461bcd60e51b815260040161051a90611eec565b6001600160a01b0382166111555760405162461bcd60e51b8152602060048201526024808201527f4552433732313a207472616e7366657220746f20746865207a65726f206164646044820152637265737360e01b606482015260840161051a565b61116283838360016114a2565b826001600160a01b031661117582610753565b6001600160a01b03161461119b5760405162461bcd60e51b815260040161051a90611eec565b600081815260046020908152604080832080546001600160a01b03199081169091556001600160a01b0387811680865260038552838620805460001901905590871680865283862080546001019055868652600290945282852080549092168417909155905184937fddf252ad1be2c89b69c2b068fc378daa952ba7f163c4a11628f55a4df523b3ef91a4505050565b6006546001600160a01b0316331461084b5760405162461bcd60e51b815260206004820181905260248201527f4f776e61626c653a2063616c6c6572206973206e6f7420746865206f776e6572604482015260640161051a565b600680546001600160a01b038381166001600160a01b0319831681179093556040519116919082907f8be0079c531659141344cd1fd0a4f28419497f9722a3daafe3b4186f6b6457e090600090a35050565b6000908152600260205260409020546001600160a01b0316151590565b816001600160a01b0316836001600160a01b0316036113555760405162461bcd60e51b815260206004820152601960248201527f4552433732313a20617070726f766520746f2063616c6c657200000000000000604482015260640161051a565b6001600160a01b03838116600081815260056020908152604080832094871680845294825291829020805460ff191686151590811790915591519182527f17307eab39ab6107e8899845ad3d59bd9653f200f220920489ca2b5937696c31910160405180910390a3505050565b6113cd8484846110ba565b6113d98484848461152a565b610be85760405162461bcd60e51b815260040161051a90611f31565b606060006114028361162b565b600101905060008167ffffffffffffffff81111561142257611422611ad1565b6040519080825280601f01601f19166020018201604052801561144c576020820181803683370190505b5090508181016020015b600019016f181899199a1a9b1b9c1cb0b131b232b360811b600a86061a8153600a850494508461145657509392505050565b610bb2828260405180602001604052806000815250611703565b6001811115610be8576001600160a01b038416156114e8576001600160a01b038416600090815260036020526040812080548392906114e2908490611f99565b90915550505b6001600160a01b03831615610be8576001600160a01b0383166000908152600360205260408120805483929061151f908490611fac565b909155505050505050565b60006001600160a01b0384163b1561162057604051630a85bd0160e11b81526001600160a01b0385169063150b7a029061156e903390899088908890600401611fbf565b6020604051808303816000875af19250505080156115a9575060408051601f3d908101601f191682019092526115a691810190611ffc565b60015b611606573d8080156115d7576040519150601f19603f3d011682016040523d82523d6000602084013e6115dc565b606091505b5080516000036115fe5760405162461bcd60e51b815260040161051a90611f31565b805181602001fd5b6001600160e01b031916630a85bd0160e11b1490506110b2565b506001949350505050565b60008072184f03e93ff9f4daa797ed6e38ed64bf6a1f0160401b831061166a5772184f03e93ff9f4daa797ed6e38ed64bf6a1f0160401b830492506040015b6d04ee2d6d415b85acef81000000008310611696576d04ee2d6d415b85acef8100000000830492506020015b662386f26fc1000083106116b457662386f26fc10000830492506010015b6305f5e10083106116cc576305f5e100830492506008015b61271083106116e057612710830492506004015b606483106116f2576064830492506002015b600a83106103e75760010192915050565b61170d8383611736565b61171a600084848461152a565b6105bb5760405162461bcd60e51b815260040161051a90611f31565b6001600160a01b03821661178c5760405162461bcd60e51b815260206004820181905260248201527f4552433732313a206d696e7420746f20746865207a65726f2061646472657373604482015260640161051a565b611795816112d7565b156117e25760405162461bcd60e51b815260206004820152601c60248201527f4552433732313a20746f6b656e20616c7265616479206d696e74656400000000604482015260640161051a565b6117f06000838360016114a2565b6117f9816112d7565b156118465760405162461bcd60e51b815260206004820152601c60248201527f4552433732313a20746f6b656e20616c7265616479206d696e74656400000000604482015260640161051a565b6001600160a01b038216600081815260036020908152604080832080546001019055848352600290915280822080546001600160a01b0319168417905551839291907fddf252ad1be2c89b69c2b068fc378daa952ba7f163c4a11628f55a4df523b3ef908290a45050565b6001600160e01b031981168114610f9a57600080fd5b6000602082840312156118d957600080fd5b8135610c5b816118b1565b60005b838110156118ff5781810151838201526020016118e7565b50506000910152565b600081518084526119208160208601602086016118e4565b601f01601f19169290920160200192915050565b602081526000610c5b6020830184611908565b60006020828403121561195957600080fd5b5035919050565b80356001600160a01b038116811461197757600080fd5b919050565b6000806040838503121561198f57600080fd5b61199883611960565b946020939093013593505050565b6000806000606084860312156119bb57600080fd5b6119c484611960565b92506119d260208501611960565b9150604084013590509250925092565b600061010060018060a01b038b16835289602084015288604084015287606084015286151560808401528060a0840152611a1e81840187611908565b60c0840195909552505060e001529695505050505050565b600060208284031215611a4857600080fd5b610c5b82611960565b6020808252825182820181905260009190848201906040850190845b81811015611a8957835183529284019291840191600101611a6d565b50909695505050505050565b60008060408385031215611aa857600080fd5b611ab183611960565b915060208301358015158114611ac657600080fd5b809150509250929050565b634e487b7160e01b600052604160045260246000fd5b600067ffffffffffffffff80841115611b0257611b02611ad1565b604051601f8501601f19908116603f01168101908282118183101715611b2a57611b2a611ad1565b81604052809350858152868686011115611b4357600080fd5b858560208301376000602087830101525050509392505050565b60008060008060808587031215611b7357600080fd5b611b7c85611960565b9350611b8a60208601611960565b925060408501359150606085013567ffffffffffffffff811115611bad57600080fd5b8501601f81018713611bbe57600080fd5b611bcd87823560208401611ae7565b91505092959194509250565b600080600080600060a08688031215611bf157600080fd5b853594506020860135935060408601359250606086013567ffffffffffffffff811115611c1d57600080fd5b8601601f81018813611c2e57600080fd5b611c3d88823560208401611ae7565b95989497509295608001359392505050565b60008060408385031215611c6257600080fd5b611c6b83611960565b9150611c7960208401611960565b90509250929050565b600181811c90821680611c9657607f821691505b602082108103611cb657634e487b7160e01b600052602260045260246000fd5b50919050565b6020808252602d908201527f4552433732313a2063616c6c6572206973206e6f7420746f6b656e206f776e6560408201526c1c881bdc88185c1c1c9bdd9959609a1b606082015260800190565b60208082526021908201527f4f6e6c7920696e766573746d656e7420636f6e74726163742063616e2063616c6040820152601b60fa1b606082015260800190565b602080825260149082015273151bdad95b88191bd95cc81b9bdd08195e1a5cdd60621b604082015260600190565b60008351611d8a8184602088016118e4565b835190830190611d9e8183602088016118e4565b01949350505050565b601f8211156105bb57600081815260208120601f850160051c81016020861015611dce5750805b601f850160051c820191505b81811015611ded57828155600101611dda565b505050505050565b815167ffffffffffffffff811115611e0f57611e0f611ad1565b611e2381611e1d8454611c82565b84611da7565b602080601f831160018114611e585760008415611e405750858301515b600019600386901b1c1916600185901b178555611ded565b600085815260208120601f198616915b82811015611e8757888601518255948401946001909101908401611e68565b5085821015611ea55787850151600019600388901b60f8161c191681555b5050505050600190811b01905550565b85815284602082015283604082015260a060608201526000611eda60a0830185611908565b90508260808301529695505050505050565b60208082526025908201527f4552433732313a207472616e736665722066726f6d20696e636f72726563742060408201526437bbb732b960d91b606082015260800190565b60208082526032908201527f4552433732313a207472616e7366657220746f206e6f6e20455243373231526560408201527131b2b4bb32b91034b6b83632b6b2b73a32b960711b606082015260800190565b634e487b7160e01b600052601160045260246000fd5b818103818111156103e7576103e7611f83565b808201808211156103e7576103e7611f83565b6001600160a01b0385811682528416602082015260408101839052608060608201819052600090611ff290830184611908565b9695505050505050565b60006020828403121561200e57600080fd5b8151610c5b816118b156fea2646970667358221220f03b4476e07fec4fc1d86bb1906dfe8f40c1ce8651157494c640cb5bd52f1ed564736f6c63430008130033","linkReferences":{}},"methodIdentifiers":{"approve(address,uint256)":"095ea7b3","balanceOf(address)":"70a08231","completeHarvest(uint256)":"86a3dfbf","defaultHarvest(uint256)":"8f6e3911","farmerTokens(address,uint256)":"d9035ef3","getApproved(uint256)":"081812fc","getFarmerTokens(address)":"4c388dd7","getHarvestDetails(uint256)":"9e2ba763","harvests(uint256)":"35a423b0","investmentContract()":"fd2bf99e","isApprovedForAll(address,address)":"e985e9c5","name()":"06fdde03","owner()":"8da5cb5b","ownerOf(uint256)":"6352211e","renounceOwnership()":"715018a6","safeTransferFrom(address,address,uint256)":"42842e0e","safeTransferFrom(address,address,uint256,bytes)":"b88d4fde","setApprovalForAll(address,bool)":"a22cb465","setInvestmentContract(address)":"cb4156aa","supportsInterface(bytes4)":"01ffc9a7","symbol()":"95d89b41","tokenURI(uint256)":"c87b56dd","tokenizeHarvest(uint256,uint256,uint256,string,uint256)":"db8e1c23","transferFrom(address,address,uint256)":"23b872dd","transferOwnership(address)":"f2fde38b"},"id":3}