{"abi":[{"type":"constructor","inputs":[],"stateMutability":"nonpayable"},{"type":"function","name":"approve","inputs":[{"name":"to","type":"address","internalType":"address"},{"name":"tokenId","type":"uint256","internalType":"uint256"}],"outputs":[],"stateMutability":"nonpayable"},{"type":"function","name":"balanceOf","inputs":[{"name":"owner","type":"address","internalType":"address"}],"outputs":[{"name":"","type":"uint256","internalType":"uint256"}],"stateMutability":"view"},{"type":"function","name":"completeHarvest","inputs":[{"name":"tokenId","type":"uint256","internalType":"uint256"}],"outputs":[],"stateMutability":"nonpayable"},{"type":"function","name":"defaultHarvest","inputs":[{"name":"tokenId","type":"uint256","internalType":"uint256"}],"outputs":[],"stateMutability":"nonpayable"},{"type":"function","name":"farmerTokens","inputs":[{"name":"","type":"address","internalType":"address"},{"name":"","type":"uint256","internalType":"uint256"}],"outputs":[{"name":"","type":"uint256","internalType":"uint256"}],"stateMutability":"view"},{"type":"function","name":"getApproved","inputs":[{"name":"tokenId","type":"uint256","internalType":"uint256"}],"outputs":[{"name":"","type":"address","internalType":"address"}],"stateMutability":"view"},{"type":"function","name":"getFarmerTokens","inputs":[{"name":"farmer","type":"address","internalType":"address"}],"outputs":[{"name":"","type":"uint256[]","internalType":"uint256[]"}],"stateMutability":"view"},{"type":"function","name":"getHarvestDetails","inputs":[{"name":"tokenId","type":"uint256","internalType":"uint256"}],"outputs":[{"name":"farmer","type":"address","internalType":"address"},{"name":"amount","type":"uint256","internalType":"uint256"},{"name":"harvestDate","type":"uint256","internalType":"uint256"},{"name":"apy","type":"uint256","internalType":"uint256"},{"name":"isActive","type":"bool","internalType":"bool"},{"name":"cropType","type":"string","internalType":"string"},{"name":"quantity","type":"uint256","internalType":"uint256"},{"name":"createdAt","type":"uint256","internalType":"uint256"}],"stateMutability":"view"},{"type":"function","name":"harvests","inputs":[{"name":"","type":"uint256","internalType":"uint256"}],"outputs":[{"name":"farmer","type":"address","internalType":"address"},{"name":"amount","type":"uint256","internalType":"uint256"},{"name":"harvestDate","type":"uint256","internalType":"uint256"},{"name":"apy","type":"uint256","internalType":"uint256"},{"name":"isActive","type":"bool","internalType":"bool"},{"name":"cropType","type":"string","internalType":"string"},{"name":"quantity","type":"uint256","internalType":"uint256"},{"name":"createdAt","type":"uint256","internalType":"uint256"}],"stateMutability":"view"},{"type":"function","name":"investmentContract","inputs":[],"outputs":[{"name":"","type":"address","internalType":"address"}],"stateMutability":"view"},{"type":"function","name":"isApprovedForAll","inputs":[{"name":"owner","type":"address","internalType":"address"},{"name":"operator","type":"address","internalType":"address"}],"outputs":[{"name":"","type":"bool","internalType":"bool"}],"stateMutability":"view"},{"type":"function","name":"name","inputs":[],"outputs":[{"name":"","type":"string","internalType":"string"}],"stateMutability":"view"},{"type":"function","name":"owner","inputs":[],"outputs":[{"name":"","type":"address","internalType":"address"}],"stateMutability":"view"},{"type":"function","name":"ownerOf","inputs":[{"name":"tokenId","type":"uint256","internalType":"uint256"}],"outputs":[{"name":"","type":"address","internalType":"address"}],"stateMutability":"view"},{"type":"function","name":"renounceOwnership","inputs":[],"outputs":[],"stateMutability":"nonpayable"},{"type":"function","name":"safeTransferFrom","inputs":[{"name":"from","type":"address","internalType":"address"},{"name":"to","type":"address","internalType":"address"},{"name":"tokenId","type":"uint256","internalType":"uint256"}],"outputs":[],"stateMutability":"nonpayable"},{"type":"function","name":"safeTransferFrom","inputs":[{"name":"from","type":"address","internalType":"address"},{"name":"to","type":"address","internalType":"address"},{"name":"tokenId","type":"uint256","internalType":"uint256"},{"name":"data","type":"bytes","internalType":"bytes"}],"outputs":[],"stateMutability":"nonpayable"},{"type":"function","name":"setApprovalForAll","inputs":[{"name":"operator","type":"address","internalType":"address"},{"name":"approved","type":"bool","internalType":"bool"}],"outputs":[],"stateMutability":"nonpayable"},{"type":"function","name":"setInvestmentContract","inputs":[{"name":"_contract","type":"address","internalType":"address"}],"outputs":[],"stateMutability":"nonpayable"},{"type":"function","name":"supportsInterface","inputs":[{"name":"interfaceId","type":"bytes4","internalType":"bytes4"}],"outputs":[{"name":"","type":"bool","internalType":"bool"}],"stateMutability":"view"},{"type":"function","name":"symbol","inputs":[],"outputs":[{"name":"","type":"string","internalType":"string"}],"stateMutability":"view"},{"type":"function","name":"tokenURI","inputs":[{"name":"tokenId","type":"uint256","internalType":"uint256"}],"outputs":[{"name":"","type":"string","internalType":"string"}],"stateMutability":"view"},{"type":"function","name":"tokenizeHarvest","inputs":[{"name":"amount","type":"uint256","internalType":"uint256"},{"name":"harvestDate","type":"uint256","internalType":"uint256"},{"name":"apy","type":"uint256","internalType":"uint256"},{"name":"cropType","type":"string","internalType":"string"},{"name":"quantity","type":"uint256","internalType":"uint256"}],"outputs":[{"name":"","type":"uint256","internalType":"uint256"}],"stateMutability":"nonpayable"},{"type":"function","name":"transferFrom","inputs":[{"name":"from","type":"address","internalType":"address"},{"name":"to","type":"address","internalType":"address"},{"name":"tokenId","type":"uint256","internalType":"uint256"}],"outputs":[],"stateMutability":"nonpayable"},{"type":"function","name":"transferOwnership","inputs":[{"name":"newOwner","type":"address","internalType":"address"}],"outputs":[],"stateMutability":"nonpayable"},{"type":"event","name":"Approval","inputs":[{"name":"owner","type":"address","indexed":true,"internalType":"address"},{"name":"approved","type":"address","indexed":true,"internalType":"address"},{"name":"tokenId","type":"uint256","indexed":true,"internalType":"uint256"}],"anonymous":false},{"type":"event","name":"ApprovalForAll","inputs":[{"name":"owner","type":"address","indexed":true,"internalType":"address"},{"name":"operator","type":"address","indexed":true,"internalType":"address"},{"name":"approved","type":"bool","indexed":false,"internalType":"bool"}],"anonymous":false},{"type":"event","name":"HarvestCompleted","inputs":[{"name":"tokenId","type":"uint256","indexed":true,"internalType":"uint256"}],"anonymous":false},{"type":"event","name":"HarvestDefaulted","inputs":[{"name":"tokenId","type":"uint256","indexed":true,"internalType":"uint256"}],"anonymous":false},{"type":"event","name":"HarvestTokenized","inputs":[{"name":"tokenId","type":"uint256","indexed":true,"internalType":"uint256"},{"name":"farmer","type":"address","indexed":true,"internalType":"address"},{"name":"amount","type":"uint256","indexed":false,"internalType":"uint256"},{"name":"harvestDate","type":"uint256","indexed":false,"internalType":"uint256"},{"name":"apy","type":"uint256","indexed":false,"internalType":"uint256"},{"name":"cropType","type":"string","indexed":false,"internalType":"string"},{"name":"quantity","type":"uint256","indexed":false,"internalType":"uint256"}],"anonymous":false},{"type":"event","name":"OwnershipTransferred","inputs":[{"name":"previousOwner","type":"address","indexed":true,"internalType":"address"},{"name":"newOwner","type":"address","indexed":true,"internalType":"address"}],"anonymous":false},{"type":"event","name":"Transfer","inputs":[{"name":"from","type":"address","indexed":true,"internalType":"address"},{"name":"to","type":"address","indexed":true,"internalType":"address"},{"name":"tokenId","type":"uint256","indexed":true,"internalType":"uint256"}],"anonymous":false}],"bytecode":{"object":"0x60806040523480156200001157600080fd5b506040518060400160405280600c81526020016b2430b93b32b9ba2a37b5b2b760a11b8152506040518060400160405280600581526020016412149594d560da1b815250816000908162000066919062000193565b50600162000075828262000193565b505050620000926200008c6200009860201b60201c565b6200009c565b6200025f565b3390565b600680546001600160a01b038381166001600160a01b0319831681179093556040519116919082907f8be0079c531659141344cd1fd0a4f28419497f9722a3daafe3b4186f6b6457e090600090a35050565b634e487b7160e01b600052604160045260246000fd5b600181811c908216806200011957607f821691505b6020821081036200013a57634e487b7160e01b600052602260045260246000fd5b50919050565b601f8211156200018e57600081815260208120601f850160051c81016020861015620001695750805b601f850160051c820191505b818110156200018a5782815560010162000175565b5050505b505050565b81516001600160401b03811115620001af57620001af620000ee565b620001c781620001c0845462000104565b8462000140565b602080601f831160018114620001ff5760008415620001e65750858301515b600019600386901b1c1916600185901b1785556200018a565b600085815260208120601f198616915b8281101562000230578886015182559484019460019091019084016200020f565b50858210156200024f5787850151600019600388901b60f8161c191681555b5050505050600190811b01905550565b611f8b806200026f6000396000f3fe608060405234801561001057600080fd5b50600436106101735760003560e01c80638da5cb5b116100de578063c87b56dd11610097578063db8e1c2311610071578063db8e1c231461034f578063e985e9c514610362578063f2fde38b1461039e578063fd2bf99e146103b157600080fd5b8063c87b56dd14610316578063cb4156aa14610329578063d9035ef31461033c57600080fd5b80638da5cb5b146102b15780638f6e3911146102c257806395d89b41146102d55780639e2ba763146102dd578063a22cb465146102f0578063b88d4fde1461030357600080fd5b806342842e0e1161013057806342842e0e1461022f5780634c388dd7146102425780636352211e1461026257806370a0823114610275578063715018a61461029657806386a3dfbf1461029e57600080fd5b806301ffc9a71461017857806306fdde03146101a0578063081812fc146101b5578063095ea7b3146101e057806323b872dd146101f557806335a423b014610208575b600080fd5b61018b61018636600461183f565b6103c4565b60405190151581526020015b60405180910390f35b6101a8610416565b60405161019791906118ac565b6101c86101c33660046118bf565b6104a8565b6040516001600160a01b039091168152602001610197565b6101f36101ee3660046118f4565b6104cf565b005b6101f361020336600461191e565b6105e9565b61021b6102163660046118bf565b61061a565b60405161019798979695949392919061195a565b6101f361023d36600461191e565b6106f5565b6102556102503660046119ae565b610710565b60405161019791906119c9565b6101c86102703660046118bf565b61077c565b6102886102833660046119ae565b6107dc565b604051908152602001610197565b6101f3610862565b6101f36102ac3660046118bf565b610876565b6006546001600160a01b03166101c8565b6101f36102d03660046118bf565b61095e565b6101a8610a46565b61021b6102eb3660046118bf565b610a55565b6101f36102fe366004611a0d565b610bd0565b6101f3610311366004611ad5565b610bdf565b6101a86103243660046118bf565b610c17565b6101f36103373660046119ae565b610c8b565b61028861034a3660046118f4565b610cb5565b61028861035d366004611b51565b610ce6565b61018b610370366004611bc7565b6001600160a01b03918216600090815260056020908152604080832093909416825291909152205460ff1690565b6101f36103ac3660046119ae565b610f1f565b600a546101c8906001600160a01b031681565b60006001600160e01b031982166380ac58cd60e01b14806103f557506001600160e01b03198216635b5e139f60e01b145b8061041057506301ffc9a760e01b6001600160e01b03198316145b92915050565b60606000805461042590611bfa565b80601f016020809104026020016040519081016040528092919081815260200182805461045190611bfa565b801561049e5780601f106104735761010080835404028352916020019161049e565b820191906000526020600020905b81548152906001019060200180831161048157829003601f168201915b5050505050905090565b60006104b382610f98565b506000908152600460205260409020546001600160a01b031690565b60006104da8261077c565b9050806001600160a01b0316836001600160a01b03160361054c5760405162461bcd60e51b815260206004820152602160248201527f4552433732313a20617070726f76616c20746f2063757272656e74206f776e656044820152603960f91b60648201526084015b60405180910390fd5b336001600160a01b038216148061056857506105688133610370565b6105da5760405162461bcd60e51b815260206004820152603d60248201527f4552433732313a20617070726f76652063616c6c6572206973206e6f7420746f60448201527f6b656e206f776e6572206f7220617070726f76656420666f7220616c6c0000006064820152608401610543565b6105e48383610fe8565b505050565b6105f33382611056565b61060f5760405162461bcd60e51b815260040161054390611c34565b6105e48383836110d5565b6008602052600090815260409020805460018201546002830154600384015460048501546005860180546001600160a01b039096169694959394929360ff909216929161066690611bfa565b80601f016020809104026020016040519081016040528092919081815260200182805461069290611bfa565b80156106df5780601f106106b4576101008083540402835291602001916106df565b820191906000526020600020905b8154815290600101906020018083116106c257829003601f168201915b5050505050908060060154908060070154905088565b6105e483838360405180602001604052806000815250610bdf565b6001600160a01b03811660009081526009602090815260409182902080548351818402810184019094528084526060939283018282801561077057602002820191906000526020600020905b81548152602001906001019080831161075c575b50505050509050919050565b6000818152600260205260408120546001600160a01b0316806104105760405162461bcd60e51b8152602060048201526018602482015277115490cdcc8c4e881a5b9d985b1a59081d1bdad95b88125160421b6044820152606401610543565b60006001600160a01b0382166108465760405162461bcd60e51b815260206004820152602960248201527f4552433732313a2061646472657373207a65726f206973206e6f7420612076616044820152683634b21037bbb732b960b91b6064820152608401610543565b506001600160a01b031660009081526003602052604090205490565b61086a611239565b6108746000611293565b565b600a546001600160a01b031633146108a05760405162461bcd60e51b815260040161054390611c81565b6108a9816112e5565b6108c55760405162461bcd60e51b815260040161054390611cc2565b60008181526008602052604090206004015460ff1661091b5760405162461bcd60e51b815260206004820152601260248201527148617276657374206e6f742061637469766560701b6044820152606401610543565b600081815260086020526040808220600401805460ff191690555182917f3c62f024362fa897ebc89aaa2cf3aefa1f6184f2733aabf1b1f90c690d7548ac91a250565b600a546001600160a01b031633146109885760405162461bcd60e51b815260040161054390611c81565b610991816112e5565b6109ad5760405162461bcd60e51b815260040161054390611cc2565b60008181526008602052604090206004015460ff16610a035760405162461bcd60e51b815260206004820152601260248201527148617276657374206e6f742061637469766560701b6044820152606401610543565b600081815260086020526040808220600401805460ff191690555182917f69e1f14e7941f4667f854fd7fe65b3cdf05b491e99fbce502397ce2d0ed91c9e91a250565b60606001805461042590611bfa565b60008060008060006060600080610a6b896112e5565b610a875760405162461bcd60e51b815260040161054390611cc2565b600089815260086020908152604080832081516101008101835281546001600160a01b0316815260018201549381019390935260028101549183019190915260038101546060830152600481015460ff161515608083015260058101805460a084019190610af490611bfa565b80601f0160208091040260200160405190810160405280929190818152602001828054610b2090611bfa565b8015610b6d5780601f10610b4257610100808354040283529160200191610b6d565b820191906000526020600020905b815481529060010190602001808311610b5057829003601f168201915b50505050508152602001600682015481526020016007820154815250509050806000015181602001518260400151836060015184608001518560a001518660c001518760e001519850985098509850985098509850985050919395975091939597565b610bdb338383611302565b5050565b610be93383611056565b610c055760405162461bcd60e51b815260040161054390611c34565b610c11848484846113d0565b50505050565b6060610c2282610f98565b6000610c3960408051602081019091526000815290565b90506000815111610c595760405180602001604052806000815250610c84565b80610c6384611403565b604051602001610c74929190611cf0565b6040516020818303038152906040525b9392505050565b610c93611239565b600a80546001600160a01b0319166001600160a01b0392909216919091179055565b60096020528160005260406000208181548110610cd157600080fd5b90600052602060002001600091509150505481565b6000428511610d2e5760405162461bcd60e51b8152602060048201526014602482015273496e76616c69642068617276657374206461746560601b6044820152606401610543565b60008611610d7e5760405162461bcd60e51b815260206004820152601d60248201527f416d6f756e74206d7573742062652067726561746572207468616e20300000006044820152606401610543565b60008211610dce5760405162461bcd60e51b815260206004820152601f60248201527f5175616e74697479206d7573742062652067726561746572207468616e2030006044820152606401610543565b610ddc600780546001019055565b6000610de760075490565b9050610df33382611496565b604080516101008101825233815260208082018a81528284018a8152606084018a815260016080860181815260a087018c815260c088018c90524260e089015260008a8152600890975297909520865181546001600160a01b0319166001600160a01b0390911617815593519084015590516002830155516003820155905160048201805460ff191691151591909117905591519091906005820190610e999082611d6d565b5060c0820151600682015560e090910151600790910155336000818152600960209081526040808320805460018101825590845291909220018390555182907f8a5e46696da87360058e58c1eeef1f9aeec47a4a2796d3a3563c49e2251d3a5990610f0d908b908b908b908b908b90611e2d565b60405180910390a39695505050505050565b610f27611239565b6001600160a01b038116610f8c5760405162461bcd60e51b815260206004820152602660248201527f4f776e61626c653a206e6577206f776e657220697320746865207a65726f206160448201526564647265737360d01b6064820152608401610543565b610f9581611293565b50565b610fa1816112e5565b610f955760405162461bcd60e51b8152602060048201526018602482015277115490cdcc8c4e881a5b9d985b1a59081d1bdad95b88125160421b6044820152606401610543565b600081815260046020526040902080546001600160a01b0319166001600160a01b038416908117909155819061101d8261077c565b6001600160a01b03167f8c5be1e5ebec7d5bd14f71427d1e84f3dd0314c0f7b2291e5b200ac8c7c3b92560405160405180910390a45050565b6000806110628361077c565b9050806001600160a01b0316846001600160a01b031614806110a957506001600160a01b0380821660009081526005602090815260408083209388168352929052205460ff165b806110cd5750836001600160a01b03166110c2846104a8565b6001600160a01b0316145b949350505050565b826001600160a01b03166110e88261077c565b6001600160a01b03161461110e5760405162461bcd60e51b815260040161054390611e64565b6001600160a01b0382166111705760405162461bcd60e51b8152602060048201526024808201527f4552433732313a207472616e7366657220746f20746865207a65726f206164646044820152637265737360e01b6064820152608401610543565b826001600160a01b03166111838261077c565b6001600160a01b0316146111a95760405162461bcd60e51b815260040161054390611e64565b600081815260046020908152604080832080546001600160a01b03199081169091556001600160a01b0387811680865260038552838620805460001901905590871680865283862080546001019055868652600290945282852080549092168417909155905184937fddf252ad1be2c89b69c2b068fc378daa952ba7f163c4a11628f55a4df523b3ef91a4505050565b6006546001600160a01b031633146108745760405162461bcd60e51b815260206004820181905260248201527f4f776e61626c653a2063616c6c6572206973206e6f7420746865206f776e65726044820152606401610543565b600680546001600160a01b038381166001600160a01b0319831681179093556040519116919082907f8be0079c531659141344cd1fd0a4f28419497f9722a3daafe3b4186f6b6457e090600090a35050565b6000908152600260205260409020546001600160a01b0316151590565b816001600160a01b0316836001600160a01b0316036113635760405162461bcd60e51b815260206004820152601960248201527f4552433732313a20617070726f766520746f2063616c6c6572000000000000006044820152606401610543565b6001600160a01b03838116600081815260056020908152604080832094871680845294825291829020805460ff191686151590811790915591519182527f17307eab39ab6107e8899845ad3d59bd9653f200f220920489ca2b5937696c31910160405180910390a3505050565b6113db8484846110d5565b6113e7848484846114b0565b610c115760405162461bcd60e51b815260040161054390611ea9565b60606000611410836115b1565b600101905060008167ffffffffffffffff81111561143057611430611a49565b6040519080825280601f01601f19166020018201604052801561145a576020820181803683370190505b5090508181016020015b600019016f181899199a1a9b1b9c1cb0b131b232b360811b600a86061a8153600a850494508461146457509392505050565b610bdb828260405180602001604052806000815250611689565b60006001600160a01b0384163b156115a657604051630a85bd0160e11b81526001600160a01b0385169063150b7a02906114f4903390899088908890600401611efb565b6020604051808303816000875af192505050801561152f575060408051601f3d908101601f1916820190925261152c91810190611f38565b60015b61158c573d80801561155d576040519150601f19603f3d011682016040523d82523d6000602084013e611562565b606091505b5080516000036115845760405162461bcd60e51b815260040161054390611ea9565b805181602001fd5b6001600160e01b031916630a85bd0160e11b1490506110cd565b506001949350505050565b60008072184f03e93ff9f4daa797ed6e38ed64bf6a1f0160401b83106115f05772184f03e93ff9f4daa797ed6e38ed64bf6a1f0160401b830492506040015b6d04ee2d6d415b85acef8100000000831061161c576d04ee2d6d415b85acef8100000000830492506020015b662386f26fc10000831061163a57662386f26fc10000830492506010015b6305f5e1008310611652576305f5e100830492506008015b612710831061166657612710830492506004015b60648310611678576064830492506002015b600a83106104105760010192915050565b61169383836116bc565b6116a060008484846114b0565b6105e45760405162461bcd60e51b815260040161054390611ea9565b6001600160a01b0382166117125760405162461bcd60e51b815260206004820181905260248201527f4552433732313a206d696e7420746f20746865207a65726f20616464726573736044820152606401610543565b61171b816112e5565b156117685760405162461bcd60e51b815260206004820152601c60248201527f4552433732313a20746f6b656e20616c7265616479206d696e746564000000006044820152606401610543565b611771816112e5565b156117be5760405162461bcd60e51b815260206004820152601c60248201527f4552433732313a20746f6b656e20616c7265616479206d696e746564000000006044820152606401610543565b6001600160a01b038216600081815260036020908152604080832080546001019055848352600290915280822080546001600160a01b0319168417905551839291907fddf252ad1be2c89b69c2b068fc378daa952ba7f163c4a11628f55a4df523b3ef908290a45050565b6001600160e01b031981168114610f9557600080fd5b60006020828403121561185157600080fd5b8135610c8481611829565b60005b8381101561187757818101518382015260200161185f565b50506000910152565b6000815180845261189881602086016020860161185c565b601f01601f19169290920160200192915050565b602081526000610c846020830184611880565b6000602082840312156118d157600080fd5b5035919050565b80356001600160a01b03811681146118ef57600080fd5b919050565b6000806040838503121561190757600080fd5b611910836118d8565b946020939093013593505050565b60008060006060848603121561193357600080fd5b61193c846118d8565b925061194a602085016118d8565b9150604084013590509250925092565b600061010060018060a01b038b16835289602084015288604084015287606084015286151560808401528060a084015261199681840187611880565b60c0840195909552505060e001529695505050505050565b6000602082840312156119c057600080fd5b610c84826118d8565b6020808252825182820181905260009190848201906040850190845b81811015611a01578351835292840192918401916001016119e5565b50909695505050505050565b60008060408385031215611a2057600080fd5b611a29836118d8565b915060208301358015158114611a3e57600080fd5b809150509250929050565b634e487b7160e01b600052604160045260246000fd5b600067ffffffffffffffff80841115611a7a57611a7a611a49565b604051601f8501601f19908116603f01168101908282118183101715611aa257611aa2611a49565b81604052809350858152868686011115611abb57600080fd5b858560208301376000602087830101525050509392505050565b60008060008060808587031215611aeb57600080fd5b611af4856118d8565b9350611b02602086016118d8565b925060408501359150606085013567ffffffffffffffff811115611b2557600080fd5b8501601f81018713611b3657600080fd5b611b4587823560208401611a5f565b91505092959194509250565b600080600080600060a08688031215611b6957600080fd5b853594506020860135935060408601359250606086013567ffffffffffffffff811115611b9557600080fd5b8601601f81018813611ba657600080fd5b611bb588823560208401611a5f565b95989497509295608001359392505050565b60008060408385031215611bda57600080fd5b611be3836118d8565b9150611bf1602084016118d8565b90509250929050565b600181811c90821680611c0e57607f821691505b602082108103611c2e57634e487b7160e01b600052602260045260246000fd5b50919050565b6020808252602d908201527f4552433732313a2063616c6c6572206973206e6f7420746f6b656e206f776e6560408201526c1c881bdc88185c1c1c9bdd9959609a1b606082015260800190565b60208082526021908201527f4f6e6c7920696e766573746d656e7420636f6e74726163742063616e2063616c6040820152601b60fa1b606082015260800190565b602080825260149082015273151bdad95b88191bd95cc81b9bdd08195e1a5cdd60621b604082015260600190565b60008351611d0281846020880161185c565b835190830190611d1681836020880161185c565b01949350505050565b601f8211156105e457600081815260208120601f850160051c81016020861015611d465750805b601f850160051c820191505b81811015611d6557828155600101611d52565b505050505050565b815167ffffffffffffffff811115611d8757611d87611a49565b611d9b81611d958454611bfa565b84611d1f565b602080601f831160018114611dd05760008415611db85750858301515b600019600386901b1c1916600185901b178555611d65565b600085815260208120601f198616915b82811015611dff57888601518255948401946001909101908401611de0565b5085821015611e1d5787850151600019600388901b60f8161c191681555b5050505050600190811b01905550565b85815284602082015283604082015260a060608201526000611e5260a0830185611880565b90508260808301529695505050505050565b60208082526025908201527f4552433732313a207472616e736665722066726f6d20696e636f72726563742060408201526437bbb732b960d91b606082015260800190565b60208082526032908201527f4552433732313a207472616e7366657220746f206e6f6e20455243373231526560408201527131b2b4bb32b91034b6b83632b6b2b73a32b960711b606082015260800190565b6001600160a01b0385811682528416602082015260408101839052608060608201819052600090611f2e90830184611880565b9695505050505050565b600060208284031215611f4a57600080fd5b8151610c848161182956fea2646970667358221220d76063ba82a33ae2ef940df9ecd02bd163ab3d6d35e7757fc90d96ded0d5ad5b64736f6c63430008130033","linkReferences":{}},"methodIdentifiers":{"approve(address,uint256)":"095ea7b3","balanceOf(address)":"70a08231","completeHarvest(uint256)":"86a3dfbf","defaultHarvest(uint256)":"8f6e3911","farmerTokens(address,uint256)":"d9035ef3","getApproved(uint256)":"081812fc","getFarmerTokens(address)":"4c388dd7","getHarvestDetails(uint256)":"9e2ba763","harvests(uint256)":"35a423b0","investmentContract()":"fd2bf99e","isApprovedForAll(address,address)":"e985e9c5","name()":"06fdde03","owner()":"8da5cb5b","ownerOf(uint256)":"6352211e","renounceOwnership()":"715018a6","safeTransferFrom(address,address,uint256)":"42842e0e","safeTransferFrom(address,address,uint256,bytes)":"b88d4fde","setApprovalForAll(address,bool)":"a22cb465","setInvestmentContract(address)":"cb4156aa","supportsInterface(bytes4)":"01ffc9a7","symbol()":"95d89b41","tokenURI(uint256)":"c87b56dd","tokenizeHarvest(uint256,uint256,uint256,string,uint256)":"db8e1c23","transferFrom(address,address,uint256)":"23b872dd","transferOwnership(address)":"f2fde38b"},"id":1}